:100000000C9419010C94E6070C94BF070C94410161
:100010000C9441010C9441010C9441010C94410158
:100020000C9441010C9441010C9441010C94B10BCE
:100030000C9441010C9441010C9441010C94410138
:100040000C9475070C9441010C9433080C940D0822
:100050000C9441010C9465080C9441010C944101ED
:100060000C9441010C94410105A84CCDB2D44EB979
:100070003836A9020C50B9918688083CA6AAAA2A4B
:10008000BE000000803F4F70656E456E65726779F7
:100090004D6F6E69746F722E6F726700446F6E657C
:1000A0002E204E657720636F6E66696720736176D8
:1000B000656420746F20454550524F4D0069344CA3
:1000C000656164203D2000693443616C203D20005F
:1000D00069334C656164203D2000693343616C20C5
:1000E0003D200069324C656164203D200069324347
:1000F000616C203D200069314C656164203D200029
:10010000693143616C203D20007643616C203D20C5
:100110000043616C6962726174696F6E3A002C70A1
:10012000756C7365733A002C74313A002C61706FF2
:100130007765723A002C706F7765723A002C7066A2
:10014000343A002C7066333A002C7066323A002C38
:100150007066313A002C616374343A002C61637428
:10016000333A002C616374323A002C616374313A83
:10017000002C6374343A002C6374333A002C63749B
:10018000323A002C6374313A002C69726D73343A40
:10019000002C69726D73333A002C69726D73323AB8
:1001A000002C69726D73313A002C6672713A0076D8
:1001B000726D733A00005EBCE2613FDD83C29C7EDB
:1001C00020A3FD1F41009D23BE46DB65F88C11AFC7
:1001D00032CA57E97400000000240027002A0000FA
:1001E000000000250028002B00000000080002018C
:1001F00000000304070000000000000000000000F1
:10020000002300260029000404040404040404025A
:1002100002020202020303030303030102040810A3
:100220002040800102040810200102040810200070
:10023000C90B11241FBECFEFD8E0DEBFCDBF24E035
:10024000A8E6B1E001C01D92AC31B207E1F711E0C0
:10025000A0E0B1E0EAE6F6E402C005900D92A8360F
:10026000B107D9F711E0C9E1D1E004C02197FE013F
:100270000E94D820C831D107C9F70E94370C0C94CE
:1002800033230C940000CF92DF92EF92FF920F93F2
:100290001F93CF93DF9328E030E041E06FEF70E0F1
:1002A0009FE0C92ED12CC3E2D0E007ED10E0909181
:1002B000F403E091F503F091F603F92EF094582F32
:1002C000542389F1F89452815F2152835181592B33
:1002D0005183DE011197F1F75281952B9283789427
:1002E000F8013197F1F7440F2150310901F7F894E3
:1002F000E091F503F091F60391818091F4038095EC
:1003000098239183E091F503F091F603928189237C
:1003100082837894DF91CF911F910F91FF90EF909E
:10032000DF90CF900895F89452815F2152835181DC
:10033000592B5183DB011197F1F75281952B928351
:100340007894F601CECF8091F403E091F503F0911B
:10035000F603F8949181282F209592239183789425
:100360003DE743E050E0315029F1DA011197F1F710
:1003700090819823C1F3F894928192239283918182
:10038000982B91837894ABE7B7E01197F1F7F89445
:10039000918192239183A3E1B1E01197F1F79081CC
:1003A000982381E009F080E07894E3E6F6E0319765
:1003B000F1F7089580E00895833081F028F48130CA
:1003C00099F08230A9F008958730A9F08830C9F0FB
:1003D0008430B1F4809180008F7D03C080918000D3
:1003E0008F7780938000089584B58F7784BD0895BA
:1003F00084B58F7DFBCF8091B0008F778093B00064
:1004000008958091B0008F7DF9CFCF93DF93282F8F
:1004100030E0F901E751FE4F8491F901E55EFD4FAF
:10042000D491F901E95FFD4FC491CC23A1F0811172
:100430000E94DC01EC2FF0E0EE0FFF1FE350FE4FB7
:10044000A591B491EC91ED2381E090E009F480E076
:10045000DF91CF91089580E090E0FACF1F93CF9382
:10046000DF93282F30E0F901E751FE4F8491F90125
:10047000E55EFD4FD491F901E95FFD4FC491CC23B6
:10048000A9F0162F81110E94DC01EC2FF0E0EE0F95
:10049000FF1FE152FE4FA591B4918FB7F894EC91F4
:1004A000111108C0D095DE23DC938FBFDF91CF916F
:1004B0001F910895DE2BF8CFCF93DF9390E0FC01DE
:1004C000E55EFD4F2491895F9D4FFC018491882357
:1004D000C9F090E0880F991FFC01EB52FE4FA591E7
:1004E000B491FC01E152FE4FC591D49161110DC050
:1004F0009FB7F8948C91209582238C938881282330
:1005000028839FBFDF91CF910895623051F49FB748
:10051000F8943C91822F809583238C93E8812E2B35
:10052000EFCF8FB7F894EC912E2B2C938FBFEACF9F
:100530003FB7F8948091530390915403A0915503D1
:10054000B091560326B5A89B05C02F3F19F0019620
:10055000A11DB11D3FBFBA2FA92F982F8827BC011D
:10056000CD01620F711D811D911D42E0660F771F45
:10057000881F991F4A95D1F708958F929F92AF9245
:10058000BF92CF92DF92EF92FF924B015C010E94EB
:1005900098026B017C010E9498026C197D098E09FA
:1005A0009F09683E734081059105A8F321E0821AF6
:1005B0009108A108B10888EEC80E83E0D81EE11C9E
:1005C000F11C81149104A104B10429F7FF90EF906C
:1005D000DF90CF90BF90AF909F908F9008952FB7EE
:1005E000F89460914F037091500380915103909162
:1005F00052032FBF08950F931F930E94EF020091A3
:10060000AB011091AC012091AD013091AE01601BA6
:10061000710B820B930B6F3671058105910528F0E4
:10062000809147038F5F809347030E94EF0260939E
:10063000AB017093AC018093AD019093AE011F911B
:100640000F9108950895AF92BF92CF92DF92EF92EB
:10065000FF920F931F93CF93DF936C017B018B016C
:10066000040F151FEB015E01AE18BF08C017D107BC
:1006700059F06991D601ED91FC910190F081E02D46
:10068000C6010995892B79F7C501DF91CF911F919B
:100690000F91FF90EF90DF90CF90BF90AF900895B3
:1006A000FC01538D448D252F30E0842F90E0821B78
:1006B000930B541710F0CF96089501970895FC01FD
:1006C000918D828D981761F0A28DAE0FBF2FB11D55
:1006D0005D968C91928D9F5F9F73928F90E00895AD
:1006E0008FEF9FEF0895FC01918D828D981731F067
:1006F000828DE80FF11D858D90E008958FEF9FEFBB
:1007000008950F931F930E94EF0260935F0370930D
:100710006003809361039093620387E593E00E94F6
:10072000730397FF1DC00E94EF0200915F031091B9
:1007300060032091610330916203601B710B820B97
:10074000930B00915B0310915C0320915D0330914A
:100750005E036017710782079307F8F28FEF9FEF30
:100760001F910F9108958F929F92AF92BF92CF9257
:10077000DF92EF92FF92CF93DF930E948103FC01FF
:1007800097FD88C08D32910509F04CC0812C912CC9
:1007900080E8A82E8FE3B82EC12CD12C7601C0E0C2
:1007A000D0E0E130F10559F1ED32F10509F447C02F
:1007B000EE32F10509F445C0CF01C0970A97F8F46D
:1007C000AAE0B0E0A70196010E945C206F01FF0F34
:1007D000EE08FF08C60ED71EE81EF91E80E3C81AF1
:1007E000D108E108F108CC2351F02DEC3CEC4CECA5
:1007F0005DE3C501B4010E94881F4B015C0187E5E0
:1008000093E00E945F030E948103FC01C0970A9756
:1008100040F2EE32F105B9F4CC2319F2CD2FD1110B
:1008200018C025C0C0970A9708F4B0CFEE32F10582
:1008300009F4ACCF87E593E00E945F039ECFD1E03F
:10084000DECFC1E0DCCFE130F10509F4AACFDD2332
:1008500041F0F094E094D094C094C11CD11CE11CF0
:10086000F11CC701B6010E94291FCC2341F0C7012A
:10087000B6010E94291FA50194010E94881FDF91E3
:10088000CF91FF90EF90DF90CF90BF90AF909F906F
:100890008F90089560E070E0CB01F1CFFC01918D65
:1008A000228D892F90E0805C9F4F821B91098F736E
:1008B0009927089587E593E00E944E0421E0892B53
:1008C00009F420E0822F089580E090E0892B29F040
:1008D0000E945A0481110C9400000895FC01A48D1B
:1008E000A80FB92FB11DA35ABF4F2C91848D90E052
:1008F00001968F739927848FA689B7892C93A08935
:10090000B1898C91837080648C93938D848D9813BE
:1009100006C00288F389E02D80818F7D8083089551
:10092000EF92FF920F931F93CF93DF93EC0181E03F
:10093000888F9B8D8C8D98131AC0E889F9898081E6
:1009400085FF15C09FB7F894EE89FF896083E88919
:10095000F98980818370806480839FBF81E090E00B
:10096000DF91CF911F910F91FF90EF900895F62E98
:100970000B8D10E00F5F1F4F0F731127E02E8C8D32
:100980008E110CC00FB607FCFACFE889F989808177
:1009900085FFF5CFCE010E946E04F1CFEB8DEC0FF9
:1009A000FD2FF11DE35AFF4FF0829FB7F8940B8F94
:1009B000EA89FB8980818062CFCF0F931F93CF9309
:1009C000DF938C01D0E0C0E0F801EC0FFD1F6491D3
:1009D000662341F087E593E00E949004892B11F093
:1009E0002196F2CFCE01DF91CF911F910F91089503
:1009F000CF93DF93EC01888D8823B9F0AA89BB8956
:100A0000E889F9898C9185FD03C0808186FD0DC040
:100A10000FB607FCF7CF8C9185FFF2CF808185FF61
:100A2000EDCFCE010E946E04E9CFDF91CF91089502
:100A30000E94A3018CEC0E94430184E40C944301C6
:100A4000FC0101900020E9F73197AF01481B590BD9
:100A5000BC0187E593E00C9423038F929F92AF92A1
:100A6000BF920F931F93CF93DF93CDB7DEB7A197BC
:100A70000FB6F894DEBF0FBECDBF19A2423008F406
:100A80004AE08E010F5D1F4F842E912CB12CA12CBA
:100A9000A50194010E948A20E62FB901CA01EA301B
:100AA000F4F4E05DD801EE938D01232B242B252B4C
:100AB00079F790E080E0109719F0CD010E942005B1
:100AC000A1960FB6F894DEBF0FBECDBFDF91CF91D8
:100AD0001F910F91BF90AF909F908F900895E95C08
:100AE000E1CFCF93DF930E94DD04EC018DE491E030
:100AF0000E9420058C0F9D1FDF91CF9108954F928A
:100B00005F926F927F928F929F92AF92BF92CF929D
:100B1000DF92EF92FF920F931F93CF936B017C01B3
:100B2000742EAC019B010E94DE22882399F080E59F
:100B300091E0CF911F910F91FF90EF90DF90CF90B8
:100B4000BF90AF909F908F907F906F905F904F90ED
:100B50000C94200546015701E894B7F82FEF3FEFBA
:100B60004FE75FE7C501B4010E94DE2281110DC08D
:100B70002FEF3FEF4FE75FE7C501B4010E94221F4F
:100B800018161CF484E591E0D4CF2FEF3FEF4FE728
:100B90005FE4C701B6010E948B2218161CF488E599
:100BA00091E0C7CF2FEF3FEF4FE75FECC701B601F2
:100BB0000E94221F87FDF3CF20E030E0A901C7018A
:100BC000B6010E94221F10E000E087FF0AC06DE21C
:100BD00087E593E00E9490048C01F7FAF094F7F80F
:100BE000F094C0E060E070E080E09FE37C1641F0AC
:100BF00020E030E040E251E40E945021CF5FF6CF88
:100C0000A70196010E94DF202B013C010E94C9210F
:100C10004B015C014AE00E942D057C01E00EF11EB3
:100C2000CC23C1F1C501B4010E94271F9B01AC0177
:100C3000C301B2010E94DE204B015C016EE287E538
:100C400093E00E949004E80EF91EC15018F120E0D4
:100C500030E040E251E4C501B4010E94881F2B013D
:100C60003C010E94C9214B01B12CA12C4AE0C501D5
:100C7000B4010E942D05E80EF91EC501B4010E94C1
:100C8000271F9B01AC01C301B2010E94DE204B0172
:100C90005C01DBCFC701CF911F910F91FF90EF90C7
:100CA000DF90CF90BF90AF909F908F907F906F908C
:100CB0005F904F900895CF93DF9342E00E947F05AD
:100CC000EC018DE491E00E9420058C0F9D1FDF91C7
:100CD000CF9108950C947F058F929F92AF92BF920F
:100CE000CF92DF92EF92FF9224E33AEF4EE85CE37B
:100CF0006091E3017091E4018091E5019091E6013A
:100D00000E94881F4B015C010E94902223ED30ED70
:100D100041E35EE30E9450216B017C01C092A90275
:100D2000D092AA02E092AB02F092AC02C501B401EB
:100D30000E944B214B015C012CE53CE14CE75FE359
:100D4000C701B6010E94881F9B01AC01C501B40117
:100D50000E94DE206093B5027093B6028093B702C2
:100D60009093B80224E33AEF4EE85CE36091DF0130
:100D70007091E0018091E1019091E2010E94881F51
:100D80004B015C010E94902223ED30ED41E35EE3D4
:100D90000E9450216B017C01C0928502D092860294
:100DA000E0928702F0928802C501B4010E944B21B3
:100DB0004B015C012CE53CE14CE75FE3C701B60168
:100DC0000E94881F9B01AC01C501B4010E94DE2076
:100DD0006093910270939202809393029093940295
:100DE00024E33AEF4EE85CE36091DB017091DC01B3
:100DF0008091DD019091DE010E94881F4B015C0112
:100E00000E94902223ED30ED41E35EE30E945021E9
:100E10006B017C01C0926102D0926202E092630297
:100E2000F0926402C501B4010E944B214B015C01A8
:100E30002CE53CE14CE75FE3C701B6010E94881F47
:100E40009B01AC01C501B4010E94DE2060936D02DC
:100E500070936E0280936F029093700224E33AEFD6
:100E60004EE85CE36091D7017091D8018091D9017F
:100E70009091DA010E94881F4B015C010E94902230
:100E800023ED30ED41E35EE30E9450216B017C01D4
:100E9000C0923D02D0923E02E0923F02F0924002A8
:100EA000C501B4010E944B214B015C012CE53CE1E2
:100EB0004CE75FE3C701B6010E94881F9B01AC01AC
:100EC000C501B4010E94DE206093490270934A027A
:100ED00080934B0290934C02FF90EF90DF90CF9065
:100EE000BF90AF909F908F9008951F920F920FB672
:100EF0000F9211242F933F938F939F93AF93BF93A0
:100F000080914F0390915003A0915103B0915203EF
:100F100030914E0323E0230F2D3758F50196A11D84
:100F2000B11D20934E0380934F0390935003A093E1
:100F30005103B09352038091530390915403A091B5
:100F40005503B09156030196A11DB11D8093530323
:100F500090935403A0935503B0935603BF91AF9160
:100F60009F918F913F912F910F900FBE0F901F90E7
:100F7000189526E8230F0296A11DB11DD2CF1F920E
:100F80000F920FB60F9211242F933F934F935F93BD
:100F90006F937F938F939F93AF93BF93EF93FF9341
:100FA000E0910401F09105010995FF91EF91BF9146
:100FB000AF919F918F917F916F915F914F913F91F1
:100FC0002F910F900FBE0F901F9018951F920F92A8
:100FD0000FB60F9211242F933F934F935F936F930C
:100FE0007F938F939F93AF93BF93EF93FF93E09182
:100FF0000201F09103010995FF91EF91BF91AF912B
:101000009F918F917F916F915F914F913F912F9120
:101010000F900FBE0F901F9018951F920F920FB652
:101020000F9211242F933F934F935F936F937F936E
:101030008F939F93AF93BF93EF93FF9387E593E0D5
:101040000E946E04FF91EF91BF91AF919F918F919C
:101050007F916F915F914F913F912F910F900FBEB4
:101060000F901F9018951F920F920FB60F92112498
:101070002F938F939F93EF93FF93E0916703F091EA
:1010800068038081E0916D03F0916E0382FD1BC0C7
:101090009081809170038F5F8F732091710382170D
:1010A00041F0E0917003F0E0E95AFC4F958F809396
:1010B0007003FF91EF919F918F912F910F900FBE31
:1010C0000F901F9018958081F4CF1F920F920FB64A
:1010D0000F9211244F925F926F927F92AF92BF92C4
:1010E000CF92DF92EF92FF920F931F932F933F9334
:1010F0004F935F936F937F938F939F93AF93BF9320
:10110000CF93DF93EF93FF9380917800C0917900A4
:10111000DC2FC82FD25080917C008F70823009F470
:10112000A5C028F5882309F41BC1813009F461C0EA
:10113000FF91EF91DF91CF91BF91AF919F918F91EF
:101140007F916F915F914F913F912F911F910F91DF
:10115000FF90EF90DF90CF90BF90AF907F906F9017
:101160005F904F900F900FBE0F901F901895833097
:1011700009F4B9C08430E1F680E480937C0080916A
:101180007A00806480937A00D093A401C093A30175
:10119000C0900D02D0900E02E0900F02F09010026D
:1011A0009E01DE010E94AC20C60ED71EE81EF91E6D
:1011B000C0920D02D0920E02E0920F02F092100245
:1011C0004091090250910A0260910B0270910C0249
:1011D000CE01DD0FAA0BBB0B840F951FA61FB71FF7
:1011E0008093090290930A02A0930B02B0930C0221
:1011F0009FCF82E480937C0080917A00806480930A
:101200007A00D093AA01C093A901C0902502D09082
:101210002602E0902702F09028029E01DE010E9443
:10122000AC20C60ED71EE81EF91EC0922502D09231
:101230002602E0922702F09228024091210250916A
:1012400022026091230270912402CE01DD0FAA0BCD
:10125000BB0B840F951FA61FB71F8093210290938D
:101260002202A0932302B093240262CF83E48093EE
:101270007C0080917A00806480937A00D093A801EA
:10128000C093A701C0901D02D0901E02E0901F02E3
:10129000F09020029E01DE010E94AC20C60ED71EF7
:1012A000E81EF91EC0921D02D0921E02E0921F029B
:1012B000F09220024091190250911A0260911B0293
:1012C00070911C02CE01DD0FAA0BBB0B840F951F82
:1012D000A61FB71F8093190290931A02A0931B02B6
:1012E000B0931C0225CF84E480937C0080917A0027
:1012F000806480937A00D093A601C093A501C0902A
:101300001502D0901602E0901702F09018029E018C
:10131000DE010E94AC20C60ED71EE81EF91EC09248
:101320001502D0921602E0921702F0921802409134
:101330001102509112026091130270911402CE01B9
:10134000DD0FAA0BBB0B840F951FA61FB71F809341
:10135000110290931202A0931302B0931402E8CEEC
:10136000A090A101B090A201D093A201C093A101CD
:10137000E0919F01F091A001DF01AA0FBB1FA559C9
:10138000BE4FCD93DC93C0902D02D0902E02E09002
:101390002F02F09030029E01DE010E94AC20C60EAA
:1013A000D71EE81EF91EC0922D02D0922E02E092A6
:1013B0002F02F09230024091290250912A0260914E
:1013C0002B0270912C02CE010D2E000CAA0BBB0B30
:1013D000840F951FA61FB71F8093290290932A029E
:1013E000A0932B02B0932C02E090A901F090AA01E7
:1013F000409005025090060260900702709008022B
:10140000CF014A960AE110E0B8010E947620DC0183
:10141000AA0FBB1FA559BE4F0D90BC91A02D9701DF
:101420000E94AC20460E571E681E791E409205028F
:1014300050920602609207027092080240900102E8
:10144000509002026090030270900402CF0149960E
:10145000B8010E947620DC01AA0FBB1FA559BE4F20
:101460000D90BC91A02D0E94AC20460E571E681E08
:10147000791E409201025092020260920302709221
:101480000402E090A701F090A8014090FD01509067
:10149000FE016090FF0170900002CF010E96B8012E
:1014A0000E947620DC01AA0FBB1FA559BE4F0D90EC
:1014B000BC91A02D97010E94AC20460E571E681EBD
:1014C000791E4092FD015092FE016092FF017092E0
:1014D00000024090F9015090FA016090FB01709079
:1014E000FC01CF010D96B8010E947620DC01AA0F05
:1014F000BB1FA559BE4F0D90BC91A02D0E94AC20E2
:10150000460E571E681E791E4092F9015092FA014C
:101510006092FB017092FC01CF010296B8010E941B
:101520007620DC01AA0FBB1FA559BE4FED90FC90A1
:10153000C090A501D090A6014090F5015090F60111
:101540006090F7017090F8019701D6010E94AC20DD
:10155000460E571E681E791E4092F5015092F60104
:101560006092F7017092F801CF010196B8010E94D4
:101570007620FC01EE0FFF1FE559FE4F408151819F
:101580004090F1015090F2016090F3017090F401ED
:101590009601DA010E94AC20460E571E681E791E85
:1015A0004092F1015092F2016092F3017092F401C5
:1015B000E091A301F091A4014090ED015090EE0163
:1015C0006090EF017090F0019701DF010E94AC2064
:1015D000460E571E681E791E4092ED015092EE0194
:1015E0006092EF017092F001C090E901D090EA01A1
:1015F000E090EB01F090EC019A010E94AC20C60E45
:10160000D71EE81EF91EC092E901D092EA01E092CD
:10161000EB01F092EC018091E7019091E8010196D5
:101620009093E8018093E70180916A018F5F843293
:1016300080F480936A0180919F019091A0010196AE
:101640006AE170E00E9476209093A00180939F0150
:101650006FCD10926A01AC16BD060CF075C0D7FFB5
:101660004BC080916801909169018C179D070CF027
:101670004EC080912C0190912D018B34924208F440
:1016800051C080912C0190912D018431934208F03A
:101690004CC080912C0190912D0190932D0180934D
:1016A0002C0180912C0190912D01909389008093C1
:1016B0008800CE01D7FF04C0882799278C1B9D0B7B
:1016C00081359105ACF184E690E09093010180931F
:1016D0000001809100019091010161E0892B09F0E6
:1016E00060E086E00E942E02D0936901C0936801F9
:1016F00081E080934D039FCF209709F4BACF80916A
:10170000680190916901C817D9070CF4B2CF809194
:101710002C0190912D018C1B9D0B90932D0180939A
:101720002C01A7CF8BE492E2B8CF83E193E2B5CF4F
:101730008091000190910101892B59F28091000163
:10174000909101010197C1CF83E193E290938900C9
:101750008093880084E690E09093010180930001DB
:10176000C3CF1F920F920FB60F9211248F93EF9356
:10177000FF9381E480937C00EAE7F0E0808180645D
:101780008083FF91EF918F910F900FBE0F901F906C
:101790001895E7E5F3E01382128288EE93E0A0E06B
:1017A000B0E084839583A683B7838FE391E0918330
:1017B000808385EC90E09587848784EC90E0978720
:1017C000868780EC90E0918B808B81EC90E0938B0E
:1017D000828B82EC90E0958B848B86EC90E0978BEB
:1017E000868B118E128E138E148E8CE0EFE2F1E058
:1017F000ACE0B4E001900D928A95E1F760E085E0FD
:101800000E945C02E0E2F2E0E491A4EFB3E0EC932A
:10181000ECE0F2E0E491F0E0EE0FFF1FE350FE4F4A
:101820008591949112969C938E9311971B961C927E
:101830001B971D961C921D971C961C921C971A961E
:101840001C921A9719961C92199718961C92189721
:1018500017961C92179716961C92169715961C921F
:10186000159714961C92149713961C920895CF9373
:10187000DF93CDB7DEB7C154D1090FB6F894DEBF00
:101880000FBECDBF789484B5826084BD84B581607D
:1018900084BD85B5826085BD85B5816085BD80913B
:1018A0006E00816080936E001092810080918100B3
:1018B00082608093810080918100816080938100AB
:1018C000809180008160809380008091B10084606D
:1018D0008093B1008091B00081608093B0008091CE
:1018E0007A00846080937A0080917A00826080938D
:1018F0007A0080917A00816080937A0080917A00EA
:10190000806880937A001092C10061E083E10E94B8
:101910005C0261E083E10E942E0261E086E00E94A9
:101920005C0261E086E00E942E0262E088E00E9494
:101930005C0288E00E940502892B49F4809106012F
:10194000909107010196909307018093060162E050
:1019500089E00E945C0289E00E940502892B61F403
:1019600080E090E0A2E8B3E48093280190932901FD
:10197000A0932A01B0932B0161E08AE00E945C02EF
:1019800061E08AE00E942E0214E060E086E00E949E
:101990002E0268EC70E080E090E00E94BD0261E001
:1019A00086E00E942E0268EC70E080E090E00E94E9
:1019B000BD02115051F7FFB6F8948091AF0181112B
:1019C00027C0E1E1F2E08491E5E2F2E09491E82FB2
:1019D000F0E0EE0FFF1FEB52FE4FA591B491EC919A
:1019E000E92321F461E08AE00E942E0261E08AE0AE
:1019F0000E945C028CB580618CBD8CB580648CBD0E
:101A000061E08DE00E945C0261E08BE00E945C027C
:101A10008091AF018F5F8093AF01FFBE8CB58F7D4A
:101A20008CBD8CB5837F8CBD8CB58C7F81608CBD6B
:101A30008DB581608DBD68EC70E080E090E00E9423
:101A4000BD0262E083E00E945C028BEF92E0909323
:101A5000050180930401809169008C608093690086
:101A6000E99A109218041092190410921A04109214
:101A70001B04E0916703F091680382E08083E091AA
:101A80006303F09164031082E0916503F0916603B3
:101A90008FEC808310926F03E0916B03F0916C03E5
:101AA00086E08083E0916903F0916A038081806120
:101AB0008083E0916903F0916A038081886080836C
:101AC000E0916903F0916A03808180688083E091EE
:101AD0006903F0916A0380818F7D808360E086E0F6
:101AE0000E942E0286E890E00E9471050E946C061A
:101AF00023E333E343E550E4609128017091290129
:101B000080912A0190912B010E94881F20E030E0F3
:101B100040E85AE30E94881F6093250370932603D0
:101B2000809327039093280323E333E343E550E4B2
:101B300060912401709125018091260190912701E7
:101B40000E94881F20E030E040E85AE30E94881F8E
:101B500060930D0370930E0380930F039093100313
:101B600023E333E343E550E460911C0170911D01D0
:101B700080911E0190911F010E94881F20E030E09B
:101B800040E85AE30E94881F6093F5027093F602C2
:101B90008093F7029093F80223E333E343E550E4A4
:101BA00060911401709115018091160190911701B7
:101BB0000E94881F20E030E040E85AE30E94881F1E
:101BC0006093DD027093DE028093DF029093E00267
:101BD00023E333E343E550E460910C0170910D0180
:101BE00080910E0190910F010E94881F20E030E04B
:101BF00040E85AE30E94881F6093C5027093C602B2
:101C00008093C7029093C802209120013091210156
:101C100040912201509123016DEB74E783E990E438
:101C20000E94DE206093E3017093E4018093E5015C
:101C30009093E601209118013091190140911A0109
:101C400050911B016CE17FE28DE590E40E94DE2063
:101C50006093DF017093E0018093E1019093E201D2
:101C60002091100130911101409112015091130106
:101C70006DEB74E783E190E40E94DE206093DB016A
:101C80007093DC018093DD019093DE0120910801C7
:101C90003091090140910A0150910B016DEB74E7FD
:101CA00083E99FE30E94DE206093D7017093D801FF
:101CB0008093D9019093DA010E94EF026093490367
:101CC00070934A0380934B0390934C030E94A301AB
:101CD000882329F081E0809348030E9418058091B1
:101CE0007A00887F80937A0080917A008660809362
:101CF0007A00F89410928000109281001092850072
:101D0000109284008FEA92E2909389008093880079
:101D10008091810088608093810080918100816042
:101D20008093810080916F00826080936F0080912A
:101D30007A00886080937A0078941E014AE0240E2D
:101D4000311C87E593E00E944E04892B09F494C26C
:101D500087E593E00E9473038B3609F038C10E9437
:101D6000B3030E94C2217B010E94B3034B015C01BB
:101D70000E94B3032B013C0187E593E00E944E04CF
:101D8000892B29F087E593E00E945F03F5CF82E07D
:101D9000E816F10409F4ADC0B4F4E114F10409F457
:101DA00052C0EA94EF2809F46DC00E946C0687E5E2
:101DB00093E00E944E04892B09F45EC287E593E00C
:101DC0000E945F03F4CFB3E0EB16F10409F4C8C03E
:101DD000E4E0EE16F10449F780920C0190920D01B7
:101DE000A0920E01B0920F0123E333E343E550E4E8
:101DF000C501B4010E94881F20E030E040E85AE3AA
:101E00000E94881F6093C5027093C6028093C70228
:101E10009093C802409208015092090160920A0111
:101E200070920B01A30192016DEB74E783E99FE3CC
:101E30000E94DE206093D7017093D8018093D9016E
:101E40009093DA01B2CF8092280190922901A0925A
:101E50002A01B0922B0123E333E343E550E4C501AB
:101E6000B4010E94881F20E030E040E85AE30E945D
:101E7000881F609325037093260380932703909314
:101E8000280393CF8092240190922501A0922601ED
:101E9000B092270123E333E343E550E4C501B401E5
:101EA0000E94881F20E030E040E85AE30E94881F2B
:101EB00060930D0370930E0380930F0390931003B0
:101EC00040922001509221016092220170922301E0
:101ED000A30192016DEB74E783E990E40E94DE2098
:101EE0006093E3017093E4018093E5019093E60130
:101EF0005CCF80921C0190921D01A0921E01B092B5
:101F00001F0123E333E343E550E4C501B4010E941C
:101F1000881F20E030E040E85AE30E94881F609369
:101F2000F5027093F6028093F7029093F8024092C4
:101F300018015092190160921A0170921B01A301BD
:101F400092016CE17FE28DE590E40E94DE206093D7
:101F5000DF017093E0018093E1019093E20125CFCE
:101F60008092140190921501A0921601B09217016F
:101F700023E333E343E550E4C501B4010E94881F25
:101F800020E030E040E85AE30E94881F6093DD02C1
:101F90007093DE028093DF029093E0024092100182
:101FA000509211016092120170921301A3019201EB
:101FB0006DEB74E783E190E40E94DE206093DB0127
:101FC0007093DC018093DD019093DE01EECE8C36C0
:101FD00009F083C081E191E00E94710589E091E000
:101FE0000E94DD04609128017091290180912A01ED
:101FF00090912B010E945B0680E091E00E94DD043D
:102000006091240170912501809126019091270112
:102010000E945B0686EF90E00E94DD046091200143
:102020007091210180912201909123010E945B0611
:102030008DEE90E00E94DD0460911C0170911D0105
:1020400080911E0190911F010E945B0683EE90E03B
:102050000E94DD04609118017091190180911A01AC
:1020600090911B010E945B068AED90E00E94DD04C6
:1020700060911401709115018091160190911701E2
:102080000E945B0680ED90E00E94DD0460911001EB
:102090007091110180911201909113010E945B06D1
:1020A00087EC90E00E94DD0460910C0170910D01BD
:1020B00080910E0190910F010E945B068DEB90E0E4
:1020C0000E94DD04609108017091090180910A016C
:1020D00090910B010E945B066ACE833709F067CEB0
:1020E0008CE591E00E9420058DE491E00E9420059E
:1020F000809106018093B001F2EDF093B2018091DE
:10210000280190912901A0912A01B0912B0180937F
:10211000B3019093B401A093B501B093B60180913F
:10212000240190912501A0912601B091270180936F
:10213000B7019093B801A093B901B093BA0180910F
:10214000200190912101A0912201B091230180935F
:10215000BB019093BC01A093BD01B093BE018091DF
:102160001C0190911D01A0911E01B0911F0180934F
:10217000BF019093C001A093C101B093C2018091AF
:10218000180190911901A0911A01B0911B0180933F
:10219000C3019093C401A093C501B093C60180917F
:1021A000140190911501A0911601B091170180932F
:1021B000C7019093C801A093C901B093CA0180914F
:1021C000100190911101A0911201B091130180931F
:1021D000CB019093CC01A093CD01B093CE0180911F
:1021E0000C0190910D01A0910E01B0910F0180930F
:1021F000CF019093D001A093D101B093D2018091EF
:10220000080190910901A0910A01B0910B018093FE
:10221000D3019093D401A093D501B093D60100EBE4
:1022200011E0F12CE12CD8016D918D01C7010E94C4
:102230004E20BFEFEB1AFB0AE7E2EE16F10499F726
:10224000F12CE12CC7010E944620682F70E090E03D
:1022500080E04AE00E942D0586E691E00E9420057C
:10226000FFEFEF1AFF0A47E2E416F10459F78CE991
:1022700090E00E9471059BCD80914D03882309F465
:1022800084C480912E01811180C4F89480902D0225
:1022900090902E02A0902F02B09030029401A501E0
:1022A00060E070E090E0A0902903B0902A03C09015
:1022B0002B03D0902C03E0902D03F0902E0300917F
:1022C0002F03109130030E94BB20209329033093E9
:1022D0002A0340932B0350932C0360932D03709398
:1022E0002E0380932F0390933003809129029091C5
:1022F0002A02A0912B02B0912C026C017D01FF0CEF
:10230000CC08DC2C76019C01AD016C2D7C2D8C2D34
:102310009C2DA0903103B0903203C0903303D09035
:102320003403E0903503F0903603009137031091A9
:1023300038030E94BB202093310330933203409333
:1023400033035093340360933503709336038093C3
:102350003703909338038090250290902602A09036
:102360002702B09028029401A50160E070E080E0AF
:1023700090E0A0901103B0901203C0901303D0908E
:102380001403E0901503F0901603009117031091C9
:1023900018030E94BB202093110330931203409333
:1023A00013035093140360931503709316038093E3
:1023B0001703909318038091210290912202A0911B
:1023C0002302B09124026C017D01FF0CCC08DC2CAF
:1023D00076019C01AD016C2D7C2D8C2D9C2DA09047
:1023E0001903B0901A03C0901B03D0901C03E09017
:1023F0001D03F0901E0300911F03109120030E9403
:10240000BB202093190330931A0340931B0350936E
:102410001C0360931D0370931E0380931F0390930E
:10242000200380901D0290901E02A0901F02B09089
:1024300020029401A50160E070E080E090E0A090AF
:10244000F902B090FA02C090FB02D090FC02E0903A
:10245000FD02F090FE020091FF02109100030E9425
:10246000BB202093F9023093FA024093FB02509371
:10247000FC026093FD027093FE028093FF02909332
:1024800000038091190290911A02A0911B02B09151
:102490001C026C017D01FF0CCC08DC2C76019C0138
:1024A000AD016C2D7C2D8C2D9C2DA0900103B09046
:1024B0000203C0900303D0900403E0900503F09062
:1024C000060300910703109108030E94BB2020938C
:1024D000010330930203409303035093040360937A
:1024E000050370930603809307039093080380907D
:1024F000150290901602A0901702B0901802940155
:10250000A50160E070E080E090E0A090E102B09072
:10251000E202C090E302D090E402E090E502F09085
:10252000E6020091E7021091E8020E94BB2020938E
:10253000E1023093E2024093E3025093E40260939D
:10254000E5027093E6028093E7029093E80280919F
:10255000110290911202A0911302B09114026C0129
:102560007D01FF0CCC08DC2C76019C01AD016C2DAB
:102570007C2D8C2D9C2DA090E902B090EA02C09099
:10258000EB02D090EC02E090ED02F090EE020091B0
:10259000EF021091F0020E94BB202093E9023093D9
:1025A000EA024093EB025093EC026093ED027093C9
:1025B000EE028093EF029093F00280900D029090D3
:1025C0000E02A0900F02B09010029401A50160E0ED
:1025D00070E080E090E0A090C902B090CA02C09084
:1025E000CB02D090CC02E090CD02F090CE020091D0
:1025F000CF021091D0020E94BB202093C9023093D9
:10260000CA024093CB025093CC026093CD027093E8
:10261000CE028093CF029093D002809109029091D4
:102620000A02A0910B02B0910C026C017D01FF0C1B
:10263000CC08DC2C76019C01AD016C2D7C2D8C2D01
:102640009C2DA090D102B090D202C090D302D09025
:10265000D402E090D502F090D6020091D7021091FA
:10266000D8020E94BB202093D1023093D202409323
:10267000D3025093D4026093D5027093D602809314
:10268000D7029093D8028091050290910602A09102
:102690000702B09108026C017D01FF0CCC08DC2C14
:1026A00076019C01AD016C2D7C2D8C2D9C2DA09074
:1026B000B902B090BA02C090BB02D090BC02E090C8
:1026C000BD02F090BE020091BF021091C0020E94B4
:1026D000BB202093B9023093BA024093BB025093BF
:1026E000BC026093BD027093BE028093BF029093C0
:1026F000C0028091010290910202A0910302B09168
:1027000004026C017D01FF0CCC08DC2C76019C01DD
:10271000AD016C2D7C2D8C2D9C2DA090AD02B09028
:10272000AE02C090AF02D090B002E090B102F09043
:10273000B2020091B3021091B4020E94BB20209318
:10274000AD023093AE024093AF025093B00260935B
:10275000B1027093B2028093B3029093B40280915D
:10276000FD019091FE01A091FF01B09100026C016A
:102770007D01FF0CCC08DC2C76019C01AD016C2D99
:102780007C2D8C2D9C2DA0909502B0909602C0902F
:102790009702D0909802E0909902F0909A020091EE
:1027A0009B0210919C020E94BB20209395023093C3
:1027B0009602409397025093980260939902709307
:1027C0009A0280939B0290939C028091F9019091D0
:1027D000FA01A091FB01B091FC016C017D01FF0C9D
:1027E000CC08DC2C76019C01AD016C2D7C2D8C2D50
:1027F0009C2DA0908902B0908A02C0908B02D0904C
:102800008C02E0908D02F0908E0200918F02109168
:1028100090020E94BB202093890230938A02409349
:102820008B0250938C0260938D0270938E02809382
:102830008F02909390028091F5019091F601A09102
:10284000F701B091F8016C017D01FF0CCC08DC2C84
:1028500076019C01AD016C2D7C2D8C2D9C2DA090C2
:102860007102B0907202C0907302D0907402E09036
:102870007502F090760200917702109178020E9422
:10288000BB202093710230937202409373025093E5
:10289000740260937502709376028093770290932E
:1028A00078028091F1019091F201A091F301B09131
:1028B000F4016C017D01FF0CCC08DC2C76019C013D
:1028C000AD016C2D7C2D8C2D9C2DA0906502B090BF
:1028D0006602C0906702D0906802E0906902F090B2
:1028E0006A0200916B0210916C020E94BB2020933F
:1028F00065023093660240936702509368026093CA
:10290000690270936A0280936B0290936C028091CB
:10291000ED019091EE01A091EF01B091F0016C01F9
:102920007D01FF0CCC08DC2C76019C01AD016C2DE7
:102930007C2D8C2D9C2DA0904D02B0904E02C0900D
:102940004F02D0905002E0905102F090520200915C
:102950005302109154020E94BB2020934D023093E9
:102960004E0240934F025093500260935102709375
:10297000520280935302909354028091E901909106
:10298000EA01A091EB01B091EC016C017D01FF0C1B
:10299000CC08DC2C76019C01AD016C2D7C2D8C2D9E
:1029A0009C2DA0904102B0904202C0904302D09072
:1029B0004402E0904502F0904602009147021091D7
:1029C00048020E94BB202093410230934202409370
:1029D00043025093440260934502709346028093F1
:1029E0004702909348022091E7013091E8018091DD
:1029F000430390914403A0914503B0914603820F95
:102A0000931FA11DB11D8093430390934403A09392
:102A10004503B093460310922D0210922E0210929D
:102A20002F02109230021092290210922A02109264
:102A30002B0210922C021092250210922602109264
:102A40002702109228021092210210922202109264
:102A500023021092240210921D0210921E02109264
:102A60001F02109220021092190210921A02109264
:102A70001B0210921C021092150210921602109264
:102A80001702109218021092110210921202109264
:102A900013021092140210920D0210920E02109264
:102AA0000F02109210021092090210920A02109264
:102AB0000B0210920C021092050210920602109264
:102AC0000702109208021092010210920202109264
:102AD0000302109204021092FD011092FE01109266
:102AE000FF01109200021092F9011092FA01109267
:102AF000FB011092FC011092F5011092F601109268
:102B0000F7011092F8011092F1011092F201109267
:102B1000F3011092F4011092ED011092EE01109267
:102B2000EF011092F0011092E9011092EA01109267
:102B3000EB011092EC011092E8011092E701209154
:102B40002C0130912D012F5F3F4F80913D039091DB
:102B50003E03A0913F03B0914003820F931FA11D3C
:102B6000B11D80933D0390933E03A0933F03B09328
:102B70004003809141039091420301969093420358
:102B80008093410310924D03789410922E010E947D
:102B9000EF02C0904903D0904A03E0904B03F090BD
:102BA0004C036C157D058E059F0510F40C940F1FCA
:102BB0000E94EF026C197D098E099F0997FF02C0E0
:102BC0000C940F1F60E086E00E942E02C090430329
:102BD000D0904403E0904503F0904603C114D10423
:102BE000E104F10409F4AAC6609141037091420323
:102BF00090E080E00E94271F20E034E244E75BE49D
:102C00000E94881F4B015C0160913D0370913E035F
:102C100080913F03909140030E94291F20E030E003
:102C200040E152E40E94881F9B01AC01C501B40140
:102C30000E9450216093390370933A0380933B03C1
:102C400090933C03C701B6010E94271F6B017C01D2
:102C5000209131033091320340913303509134037A
:102C6000609135037091360380913703909138035A
:102C70000E94F8216A877B878C879D872091290392
:102C800030912A0340912B0350912C0360912D0326
:102C900070912E0380912F03909130030E94FE21AA
:102CA000A70196010E9450214B015C012A853B85BA
:102CB0004C855D85CA01B9010E94881FA701960154
:102CC0000E945021A70196010E9450219B01AC0156
:102CD000C501B4010E94DE204B015C0120E030E020
:102CE000A9010E94221F20E030E0A90187FD06C053
:102CF000C501B4010E949E229B01AC018091250375
:102D000090912603A0912703B09128038A8F9B8F6F
:102D1000AC8FBD8FBC01CD010E94881F6A8B7B8B5D
:102D20008C8B9D8B609321037093220380932303EC
:102D3000909324032091190330911A0340911B03AF
:102D400050911C0360911D0370911E0380911F031D
:102D5000909120030E94F8214B015C012091110306
:102D600030911203409113035091140360911503A5
:102D70007091160380911703909118030E94FE2111
:102D8000A70196010E9450212B013C01A50194014D
:102D9000C501B4010E94881FA70196010E9450211D
:102DA000A70196010E9450219B01AC01C301B20111
:102DB0000E94DE202B013C0120E030E0A9010E94AE
:102DC000221F20E030E0A90187FD06C0C301B20147
:102DD0000E949E229B01AC0180910D0390910E03F5
:102DE000A0910F03B09110038E8B9F8BA88FB98F8A
:102DF000BC01CD010E94881F6EA37FA388A799A75D
:102E00006093090370930A0380930B0390930C0360
:102E10002091010330910203409103035091040378
:102E20006091050370910603809107039091080358
:102E30000E94F8216E877F87888B998B2091F902F9
:102E40003091FA024091FB025091FC026091FD0228
:102E50007091FE028091FF02909100030E94FE217A
:102E6000A70196010E9450212B013C012E853F8530
:102E700048895989CA01B9010E94881FA701960192
:102E80000E945021A70196010E9450219B01AC0194
:102E9000C301B2010E94DE202B013C0120E030E0A2
:102EA000A9010E94221F20E030E0A90187FD06C091
:102EB000C301B2010E949E229B01AC018091F502E8
:102EC0009091F602A091F702B091F8028AA79BA711
:102ED000ACA7BDA7BC01CD010E94881F6EA77FA72C
:102EE00088AB99AB6093F1027093F2028093F30286
:102EF0009093F4022091E9023091EA024091EB02B2
:102F00005091EC026091ED027091EE028091EF021F
:102F10009091F0020E94F8216AA37BA38CA39DA349
:102F20002091E1023091E2024091E3025091E402EB
:102F30006091E5027091E6028091E7029091E802CB
:102F40000E94FE21A70196010E9450212B013C0105
:102F50002AA13BA14CA15DA1CA01B9010E94881F11
:102F6000A70196010E945021A70196010E945021BD
:102F70009B01AC01C301B2010E94DE202B013C0188
:102F800020E030E0A9010E94221F20E030E0A901EA
:102F900087FD06C0C301B2010E949E229B01AC01C5
:102FA0008091DD029091DE02A091DF02B091E002FB
:102FB0008AAB9BABACABBDABBC01CD010E94881F03
:102FC0006EAB7FAB88AF99AF6093D9027093DA0292
:102FD0008093DB029093DC022091D1023091D202E7
:102FE0004091D3025091D4026091D5027091D602E3
:102FF0008091D7029091D8020E94F8216E8F7F8F26
:1030000088A399A32091C9023091CA024091CB02B2
:103010005091CC026091CD027091CE028091CF028E
:103020009091D0020E94FE21A70196010E9450219A
:103030002B013C012E8D3F8D48A159A1CA01B90138
:103040000E94881FA70196010E945021A7019601A6
:103050000E9450219B01AC01C301B2010E94DE20FD
:103060002B013C0120E030E0A9010E94221F20E05A
:1030700030E0A90187FD06C0C301B2010E949E2273
:103080009B01AC018091C5029091C602A091C7023C
:10309000B091C8028AAF9BAFACAFBDAFBC01CD0150
:1030A0000E94881F22966CAF7DAF8EAF9FAF229794
:1030B0006093C1027093C2028093C3029093C402D2
:1030C0002A853B854C855D85C501B4010E94881F1A
:1030D000A70196010E945021A70196010E9450214C
:1030E0004B015C012091B9023091BA024091BB02C0
:1030F0005091BC026091BD027091BE028091BF02EE
:103100009091C0020E94F821A70196010E945021CF
:10311000A50194010E94DE202091B5023091B602F3
:103120004091B7025091B8020E94881F2B013C01C8
:103130002091AD023091AE024091AF025091B002A9
:103140006091B1027091B2028091B3029091B40289
:103150000E94F821A70196010E945021A501940127
:103160000E94DE202091A9023091AA024091AB0278
:103170005091AC020E94881F9B01AC01C301B201B7
:103180000E94DF204B015C012E893F89488D598DBB
:103190006A8D7B8D8C8D9D8D0E94881F9B01AC015B
:1031A000C501B4010E94881F6E8B7F8B888F998F19
:1031B0006093A5027093A6028093A7029093A80241
:1031C0002EA13FA148A559A56A897B898C899D8933
:1031D0000E94881F4B015C018092A1029092A20282
:1031E000A092A302B092A4022DEC3CEC4CEC5DE367
:1031F0000E948B2218160CF000C4A50194016E8960
:103200007F89888D998D0E94502160939D027093D3
:103210009E0280939F029093A0022A853B854C8555
:103220005D856E857F85888999890E94881FA701A1
:1032300096010E945021A70196010E9450214B0146
:103240005C01209195023091960240919702509135
:1032500098026091990270919A0280919B029091DC
:103260009C020E94F821A70196010E945021A5010D
:1032700094010E94DE2020919102309192024091AF
:103280009302509194020E94881F2B013C012091CF
:10329000890230918A0240918B0250918C02609198
:1032A0008D0270918E0280918F02909190020E9407
:1032B000F821A70196010E945021A50194010E94C6
:1032C000DE20209185023091860240918702509144
:1032D00088020E94881F9B01AC01C301B2010E94B9
:1032E000DF204B015C012AA53BA54CA55DA56A8D9D
:1032F0007B8D8C8D9D8D0E94881F9B01AC01C5012B
:10330000B4010E94881F6E877F87888B998B60939A
:1033100081027093820280938302909384022EA58F
:103320003FA548A959A96A897B898C899D890E94F2
:10333000881F4B015C0180927D0290927E02A092D8
:103340007F02B09280022DEC3CEC4CEC5DE30E94DD
:103350008B2218160CF05AC3A50194016E857F8547
:10336000888999890E9450216093790270937A022A
:1033700080937B0290937C022A853B854C855D85FA
:103380006AA17BA18CA19DA10E94881FA701960123
:103390000E945021A70196010E9450214B015C011F
:1033A0002091710230917202409173025091740227
:1033B0006091750270917602809177029091780207
:1033C0000E94F821A70196010E945021A5019401B5
:1033D0000E94DE2020916D0230916E0240916F02BA
:1033E000509170020E94881F2B013C0120916502C0
:1033F00030916602409167025091680260916902C3
:1034000070916A0280916B0290916C020E94F82187
:10341000A70196010E945021A50194010E94DE207F
:1034200020916102309162024091630250916402E6
:103430000E94881F9B01AC01C301B2010E94DF20E2
:103440004B015C012AA93BA94CA95DA96A8D7B8D22
:103450008C8D9D8D0E94881F9B01AC01C501B4011C
:103460000E94881F2B013C0140925D0250925E0237
:1034700060925F02709260022EA93FA948AD59ADDB
:103480006A897B898C899D890E94881F4B015C0118
:103490008092590290925A02A0925B02B0925C0212
:1034A0002DEC3CEC4CEC5DE30E948B2218160CF0EA
:1034B000B6C2A5019401C301B2010E9450216093DC
:1034C00055027093560280935702909358022A85B2
:1034D0003B854C855D856E8D7F8D88A199A10E946D
:1034E000881FA70196010E945021A70196010E9402
:1034F00050214B015C0120914D0230914E024091D0
:103500004F0250915002609151027091520280918D
:103510005302909154020E94F821A70196010E9443
:103520005021A50194010E94DE2020914902309192
:103530004A0240914B0250914C020E94881F6A87B8
:103540007B878C879D872091410230914202409178
:10355000430250914402609145027091460280916D
:103560004702909148020E94F821A70196010E940B
:103570005021A50194010E94DE2020913D0230914E
:103580003E0240913F02509140020E94881F9B01E1
:10359000AC016A857B858C859D850E94DF206B014F
:1035A0007C012AAD3BAD4CAD5DAD6A8D7B8D8C8DC4
:1035B0009D8D0E94881F9B01AC01C701B6010E942E
:1035C000881F6B017C01C0923902D0923A02E092CE
:1035D0003B02F0923C0222962CAD3DAD4EAD5FAD6C
:1035E00022976A897B898C899D890E94881F4B015B
:1035F0005C018092350290923602A0923702B0921E
:1036000038022DEC3CEC4CEC5DE30E948B2218164A
:103610000CF00EC2A5019401C701B6010E94502111
:10362000609331027093320280933302909334029C
:1036300020E030E040E05FE36E897F89888D998DDE
:103640000E94DF200E94C221709303046093020451
:1036500020E030E040E05FE36E857F8588899989CE
:103660000E94DF200E94C22170930504609304042D
:1036700020E030E040E05FE3C301B2010E94DF20C0
:103680000E94C221709307046093060420E030E09A
:1036900040E05FE3C701B6010E94DF200E94C22123
:1036A000709309046093080420E030E048EC52E491
:1036B0006A897B898C899D890E94881F20E030E07F
:1036C00040E05FE30E94DF200E94C22170930B0460
:1036D00060930A041092290310922A0310922B037C
:1036E00010922C0310922D0310922E0310922F0390
:1036F0001092300310923103109232031092330370
:10370000109234031092350310923603109237034F
:1037100010923803109211031092120310921303A7
:1037200010921403109215031092160310921703AF
:10373000109218031092190310921A0310921B038F
:1037400010921C0310921D0310921E0310921F036F
:10375000109220031092F9021092FA021092FB02CA
:103760001092FC021092FD021092FE021092FF02D3
:1037700010920003109201031092020310920303AF
:10378000109204031092050310920603109207038F
:10379000109208031092E1021092E2021092E302EA
:1037A0001092E4021092E5021092E6021092E702F3
:1037B0001092E8021092E9021092EA021092EB02D3
:1037C0001092EC021092ED021092EE021092EF02B3
:1037D0001092F0021092C9021092CA021092CB020B
:1037E0001092CC021092CD021092CE021092CF0213
:1037F0001092D0021092D1021092D2021092D302F3
:103800001092D4021092D5021092D6021092D702D2
:103810001092D8021092B9021092BA021092BB0212
:103820001092BC021092BD021092BE021092BF0212
:103830001092C0021092AD021092AE021092AF022E
:103840001092B0021092B1021092B2021092B30222
:103850001092B40210929502109296021092970262
:10386000109298021092990210929A0210929B0262
:1038700010929C021092890210928A0210928B027E
:1038800010928C0210928D0210928E0210928F0272
:1038900010929002109271021092720210927302B2
:1038A00010927402109275021092760210927702B2
:1038B00010927802109265021092660210926702CE
:1038C000109268021092690210926A0210926B02C2
:1038D00010926C0210924D0210924E0210924F0202
:1038E0001092500210925102109252021092530202
:1038F000109254021092410210924202109243021E
:103900001092440210924502109246021092470211
:103910001092480210924303109244031092450300
:1039200010924603109242031092410310923D03FD
:1039300010923E0310923F0310924003809148037F
:10394000882309F49BC00E94A301882309F477C24D
:103950008CEC0E9443018EEB0E944301DE01119624
:103960009D0148E050E000E061E0D090F403E09178
:10397000F503F091F603F89471817D297183F2804B
:103980001D2D1095F122F28277E0E72EF12CC70170
:103990000197F1F771817123718313E2E12EF12C0C
:1039A000C7010197F1F770817894EFECF0E031975F
:1039B000F1F78D2D872309F0062B660F4150510931
:1039C000A1F6F90101939F012E163F0609F0C9CF18
:1039D00029E0E0E02150A9F18D918E27E82FEF70CA
:1039E000F0E0EB54FE4F9491E82FE295EF70F0E099
:1039F000EB53FE4FE491E927EDCF10929D02109218
:103A00009E0210929F021092A00207CC109279029F
:103A100010927A0210927B0210927C02ADCC10922E
:103A200055021092560210925702109258024FCD32
:103A3000109231021092320210923302109234022C
:103A4000F7CD89858E13FBC129813A8146E0429FDB
:103A5000C001439F900D11243595279535952795E5
:103A6000820F931F9C0125583A4E2F34364410F094
:103A700088EF95E790930D0480930C0480914703A1
:103A80008823D1F0F89420914703809118049091F5
:103A90001904A0911A04B0911B04820F911DA11D5D
:103AA000B11D8093180490931904A0931A04B09345
:103AB0001B041092470378948FEA91E00E94DD0482
:103AC000609121037091220380912303909124033C
:103AD00042E050E00E946A0689EA91E00E94DD041B
:103AE0006091390370913A0380913B0390913C03BC
:103AF00042E050E00E946A0681EA91E00E94DD0403
:103B00006091090370910A0380910B0390910C035B
:103B100043E050E00E946A0689E991E00E94DD04DA
:103B20006091F1027091F2028091F3029091F4029F
:103B300043E050E00E946A0681E991E00E94DD04C2
:103B40006091D9027091DA028091DB029091DC02DF
:103B500043E050E00E946A0689E891E00E94DD049B
:103B60006091C1027091C2028091C3029091C4021F
:103B700043E050E00E946A0683E891E00E94DD0481
:103B80006091A5027091A6028091A7029091A8026F
:103B900042E050E00E946A068DE791E00E94DD0459
:103BA00060918102709182028091830290918402DF
:103BB00042E050E00E946A0687E791E00E94DD043F
:103BC00060915D0270915E0280915F02909160024F
:103BD00042E050E00E946A0681E791E00E94DD0425
:103BE0006091390270913A0280913B0290913C02BF
:103BF00042E050E00E946A068AE691E00E94DD04FD
:103C00006091A1027091A2028091A3029091A402FE
:103C100042E050E00E946A0683E691E00E94DD04E3
:103C200060917D0270917E0280917F02909180026E
:103C300042E050E00E946A068CE591E00E94DD04BB
:103C40006091590270915A0280915B0290915C02DE
:103C500042E050E00E946A0685E591E00E94DD04A2
:103C6000609135027091360280913702909138024E
:103C700042E050E00E946A068FE491E00E94DD0479
:103C800060919D0270919E0280919F029091A0028E
:103C900043E050E00E946A0689E491E00E94DD045E
:103CA0006091790270917A0280917B0290917C02FE
:103CB00043E050E00E946A0683E491E00E94DD0444
:103CC000609155027091560280915702909158026E
:103CD00043E050E00E946A068DE391E00E94DD041B
:103CE00060913102709132028091330290913402DE
:103CF00043E050E00E946A0685E391E00E94DD0403
:103D0000209181023091820240918302509184027D
:103D10006091A5027091A6028091A7029091A802DD
:103D20000E94DF2020915D0230915E0240915F028F
:103D3000509160020E94DF2042E050E00E946A063B
:103D40008CE291E00E94DD0420917D0230917E02A0
:103D500040917F02509180026091A1027091A20275
:103D60008091A3029091A4020E94DF202091590229
:103D700030915A0240915B0250915C020E94DF2018
:103D800042E050E00E946A0687E291E00E94DD0472
:103D900060910C0470910D04072E000C880B990B98
:103DA0000E94291F20E030E048EC52E40E9450219C
:103DB00042E050E00E946A068EE191E00E94DD043C
:103DC000609118047091190480911A0490911B0459
:103DD0004AE00E942D058DE491E00E94200562E3F7
:103DE00070E080E090E00E94BD020E941805809182
:103DF000490390914A03A0914B03B0914C0388571B
:103E00009C4EAF4FBF4F8093490390934A03A093BA
:103E10004B03B0934C0361E086E00E942E0280E0E9
:103E200090E0892B11F40C94A10E0E945A0488236F
:103E300011F40C94A10E0E9400000C94A10E80ECD1
:103E400096E718CE0E94641F08F481E00895E89474
:103E500009C097FB3EF490958095709561957F4FD2
:103E60008F4F9F4F9923A9F0F92F96E9BB27939580
:103E7000F695879577956795B795F111F8CFFAF490
:103E8000BB0F11F460FF1BC06F5F7F4F8F4F9F4FC1
:103E900016C0882311F096E911C0772321F09EE81F
:103EA000872F762F05C0662371F096E8862F70E085
:103EB00060E02AF09A95660F771F881FDAF7880F5F
:103EC0009695879597F90895990F0008550FAA0BB5
:103ED000E0E8FEEF16161706E807F907C0F012161D
:103EE0001306E407F50798F0621B730B840B950B20
:103EF00039F40A2661F0232B242B252B21F4089575
:103F00000A2609F4A140A6958FEF811D811D089511
:103F10000E949B1F0C940C200E94FE1F38F00E94F0
:103F2000052020F0952311F00C94F51F0C94FB1F35
:103F300011240C9440200E941D2070F3959FC1F322
:103F4000950F50E0551F629FF001729FBB27F00D47
:103F5000B11D639FAA27F00DB11DAA1F649F66279C
:103F6000B00DA11D661F829F2227B00DA11D621FEB
:103F7000739FB00DA11D621F839FA00D611D221FA5
:103F8000749F3327A00D611D231F849F600D211D89
:103F9000822F762F6A2F11249F5750409AF0F1F00C
:103FA00088234AF0EE0FFF1FBB1F661F771F881F75
:103FB00091505040A9F79E3F510580F00C94F51F99
:103FC0000C9440205F3FE4F3983ED4F386957795B8
:103FD0006795B795F795E7959F5FC1F7FE2B880F1B
:103FE000911D9695879597F9089597F99F6780E8B1
:103FF00070E060E008959FEF80EC089500240A943B
:104000001616170618060906089500240A941216B3
:104010001306140605060895092E0394000C11F4E6
:10402000882352F0BB0F40F4BF2B11F460FF04C093
:104030006F5F7F4F8F4F9F4F089557FD9058440FEC
:10404000551F59F05F3F71F04795880F97FB991FF7
:1040500061F09F3F79F087950895121613061406B4
:10406000551FF2CF4695F1DF08C016161706180641
:10407000991FF1CF86957105610508940895E8941C
:10408000BB2766277727CB0197F90895F999FECFCB
:1040900092BD81BDF89A992780B50895262FF99988
:1040A000FECF1FBA92BD81BD20BD0FB6F894FA9A1B
:1040B000F99A0FBE019608950E946720A59F900D62
:1040C000B49F900DA49F800D911D11240895A29F6F
:1040D000B001B39FC001A39F700D811D1124911DDC
:1040E000B29F700D811D1124911D089597FB072E1D
:1040F00016F4009407D077FD09D00E94C42007FC75
:1041000005D03EF4909581959F4F089570956195E7
:104110007F4F0895A1E21A2EAA1BBB1BFD010DC003
:10412000AA1FBB1FEE1FFF1FA217B307E407F50767
:1041300020F0A21BB30BE40BF50B661F771F881F43
:10414000991F1A9469F760957095809590959B01D9
:10415000AC01BD01CF0108950E946720332312F402
:104160008A1B9B0B0C94B6200E946720B7FF089512
:10417000821B930B08952A0D3B1D4C1D5D1D6E1D6A
:104180007F1D801F911F0895AA1BBB1B51E107C013
:10419000AA1FBB1FA617B70710F0A61BB70B881FD7
:1041A000991F5A95A9F780959095BC01CD01089566
:1041B000EE0FFF1F0590F491E02D09945058BB2796
:1041C000AA270E94F6200C940C200E94FE1F38F0B3
:1041D0000E94052020F039F49F3F19F426F40C9436
:1041E000FB1F0EF4E095E7FB0C94F51FE92F0E94EE
:1041F0001D2058F3BA17620773078407950720F04C
:1042000079F4A6F50C943F200EF4E0950B2EBA2F0E
:10421000A02D0B01B90190010C01CA01A0011124CC
:10422000FF27591B99F0593F50F4503E68F11A1678
:10423000F040A22F232F342F4427585FF3CF469509
:1042400037952795A795F0405395C9F77EF41F162B
:10425000BA0B620B730B840BBAF09150A1F0FF0FF5
:10426000BB1F661F771F881FC2F70EC0BA0F621FE1
:10427000731F841F48F4879577956795B795F795D1
:104280009E3F08F0B0CF9395880F08F09927EE0F66
:104290009795879508950E944E22E3950C94772276
:1042A0000E9464210C940C200E94052058F00E946A
:1042B000FE1F40F029F45F3F29F00C94F51F5111C7
:1042C0000C9440200C94FB1F0E941D2068F399233E
:1042D000B1F3552391F3951B550BBB27AA27621702
:1042E0007307840738F09F5F5F4F220F331F441F0F
:1042F000AA1FA9F335D00E2E3AF0E0E832D0915043
:104300005040E695001CCAF72BD0FE2F29D0660F2F
:10431000771F881FBB1F261737074807AB07B0E872
:1043200009F0BB0B802DBF01FF2793585F4F3AF078
:104330009E3F510578F00C94F51F0C9440205F3F90
:10434000E4F3983ED4F3869577956795B795F795FE
:104350009F5FC9F7880F911D9695879597F90895E6
:10436000E1E0660F771F881FBB1F62177307840782
:10437000BA0720F0621B730B840BBA0BEE1F88F791
:10438000E09508950E94C9216894B1110C944020D1
:1043900008950E94252088F09F5798F0B92F9927FB
:1043A000B751B0F0E1F0660F771F881F991F1AF020
:1043B000BA95C9F714C0B13091F00E943F20B1E026
:1043C00008950C943F20672F782F8827B85F39F025
:1043D000B93FCCF3869577956795B395D9F73EF4B9
:1043E00090958095709561957F4F8F4F9F4F089561
:1043F00097FB16F40E943C220C94FF21E894F92FBD
:1044000096EBFF2381F0121613061406440B9395C6
:10441000F69587957795679557954040FF23B9F7AF
:104420001BC099270895882351F49850D2F7872B01
:10443000762F652F542F432F322F20E0B1F3121621
:1044400013061406440B88233AF09A95440F551F1F
:10445000661F771F881FCAF755234AF4440F551F5C
:1044600011F460FF04C06F5F7F4F8F4F9F4F880F25
:104470009695879597F90895909580957095609594
:1044800050954095309521953F4F4F4F5F4F6F4F5F
:104490007F4F8F4F9F4F08950C94FB1F0E94252044
:1044A000D8F3E894E0E0BB279F57F0F02AED3FE017
:1044B00049EC06C0EE0FBB0F661F771F881F28F060
:1044C000B23A62077307840728F0B25A620B730B83
:1044D000840BE3959A9572F7803830F49A95BB0F68
:1044E000661F771F881FD2F790480C94E522EF9340
:1044F000E0FF07C0A2EA2AED3FE049EC5FEB0E9433
:10450000F6200E940C200F90039401FC9058E8E6DE
:10451000F0E00C94F8220E94641F08F48FEF0895D5
:104520009F930E944E220F9007FCEE5F0C9477221F
:1045300019F416F40C94FB1F0C94E3220E9425201E
:10454000B8F39923C9F3B6F39F57550B87FF0E9421
:10455000F1220024A0E640EA9001805856959795F4
:1045600028F4805C660F771F881F20F02617370716
:10457000480730F4621B730B840B202931294A2B26
:10458000A69517940794202531254A2758F7660FDA
:10459000771F881F20F026173707480730F4620B73
:1045A000730B840B200D311D411DA09581F7B901BE
:1045B000842F9158880F9695879508950E94641FBF
:1045C000880B990B08959F3F31F0915020F4879507
:1045D00077956795B795880F911D9695879597F96B
:1045E000089591505040660F771F881FD2F70895A5
:1045F0009F938F937F936F93FF93EF939B01AC01F6
:104600000E94881FEF91FF910E940C232F913F91F0
:104610004F915F910C94881FDF93CF931F930F935B
:10462000FF92EF92DF927B018C01689406C0DA2E34
:10463000EF010E949B1FFE01E894A5912591359101
:1046400045915591A6F3EF010E94F620FE019701D6
:10465000A801DA9469F7DF90EF90FF900F911F9116
:0A466000CF91DF910895F894FFCF89
:10466A006400220322030B00000000400000F04116
:10467A00000000400000F041000000400000F0414E
:10468A00000000400000F0413D0A8543AF2201309E
:10469A0075307530753075307530750000000090D2
:1046AA000423035003F8044E045F0373030D0A0046
:1046BA006E616E00696E66006F7666005361766998
:0846CA006E672E2E2E00200069
:00000001FF
